{
  "_format": "hh-sol-artifact-1",
  "contractName": "BatchSpender",
  "sourceName": "contracts/BatchSpender.sol",
  "abi": [
    {
      "inputs": [
        {
          "internalType": "address",
          "name": "admin",
          "type": "address"
        },
        {
          "internalType": "address",
          "name": "operator",
          "type": "address"
        }
      ],
      "stateMutability": "nonpayable",
      "type": "constructor"
    },
    {
      "inputs": [],
      "name": "AccessControlBadConfirmation",
      "type": "error"
    },
    {
      "inputs": [
        {
          "internalType": "address",
          "name": "account",
          "type": "address"
        },
        {
          "internalType": "bytes32",
          "name": "neededRole",
          "type": "bytes32"
        }
      ],
      "name": "AccessControlUnauthorizedAccount",
      "type": "error"
    },
    {
      "inputs": [],
      "name": "EnforcedPause",
      "type": "error"
    },
    {
      "inputs": [],
      "name": "ExpectedPause",
      "type": "error"
    },
    {
      "inputs": [],
      "name": "ReentrancyGuardReentrantCall",
      "type": "error"
    },
    {
      "inputs": [
        {
          "internalType": "address",
          "name": "token",
          "type": "address"
        }
      ],
      "name": "SafeERC20FailedOperation",
      "type": "error"
    },
    {
      "anonymous": false,
      "inputs": [
        {
          "indexed": true,
          "internalType": "address",
          "name": "token",
          "type": "address"
        },
        {
          "indexed": true,
          "internalType": "address",
          "name": "from",
          "type": "address"
        },
        {
          "indexed": false,
          "internalType": "uint256",
          "name": "recipients",
          "type": "uint256"
        },
        {
          "indexed": false,
          "internalType": "uint256",
          "name": "totalAmount",
          "type": "uint256"
        }
      ],
      "name": "BatchExecuted",
      "type": "event"
    },
    {
      "anonymous": false,
      "inputs": [
        {
          "indexed": false,
          "internalType": "address",
          "name": "account",
          "type": "address"
        }
      ],
      "name": "Paused",
      "type": "event"
    },
    {
      "anonymous": false,
      "inputs": [
        {
          "indexed": true,
          "internalType": "address",
          "name": "token",
          "type": "address"
        },
        {
          "indexed": true,
          "internalType": "address",
          "name": "to",
          "type": "address"
        },
        {
          "indexed": false,
          "internalType": "uint256",
          "name": "amount",
          "type": "uint256"
        }
      ],
      "name": "Rescue",
      "type": "event"
    },
    {
      "anonymous": false,
      "inputs": [
        {
          "indexed": true,
          "internalType": "bytes32",
          "name": "role",
          "type": "bytes32"
        },
        {
          "indexed": true,
          "internalType": "bytes32",
          "name": "previousAdminRole",
          "type": "bytes32"
        },
        {
          "indexed": true,
          "internalType": "bytes32",
          "name": "newAdminRole",
          "type": "bytes32"
        }
      ],
      "name": "RoleAdminChanged",
      "type": "event"
    },
    {
      "anonymous": false,
      "inputs": [
        {
          "indexed": true,
          "internalType": "bytes32",
          "name": "role",
          "type": "bytes32"
        },
        {
          "indexed": true,
          "internalType": "address",
          "name": "account",
          "type": "address"
        },
        {
          "indexed": true,
          "internalType": "address",
          "name": "sender",
          "type": "address"
        }
      ],
      "name": "RoleGranted",
      "type": "event"
    },
    {
      "anonymous": false,
      "inputs": [
        {
          "indexed": true,
          "internalType": "bytes32",
          "name": "role",
          "type": "bytes32"
        },
        {
          "indexed": true,
          "internalType": "address",
          "name": "account",
          "type": "address"
        },
        {
          "indexed": true,
          "internalType": "address",
          "name": "sender",
          "type": "address"
        }
      ],
      "name": "RoleRevoked",
      "type": "event"
    },
    {
      "anonymous": false,
      "inputs": [
        {
          "indexed": false,
          "internalType": "address",
          "name": "account",
          "type": "address"
        }
      ],
      "name": "Unpaused",
      "type": "event"
    },
    {
      "inputs": [],
      "name": "DEFAULT_ADMIN_ROLE",
      "outputs": [
        {
          "internalType": "bytes32",
          "name": "",
          "type": "bytes32"
        }
      ],
      "stateMutability": "view",
      "type": "function"
    },
    {
      "inputs": [],
      "name": "MAX_BATCH",
      "outputs": [
        {
          "internalType": "uint256",
          "name": "",
          "type": "uint256"
        }
      ],
      "stateMutability": "view",
      "type": "function"
    },
    {
      "inputs": [],
      "name": "OPERATOR_ROLE",
      "outputs": [
        {
          "internalType": "bytes32",
          "name": "",
          "type": "bytes32"
        }
      ],
      "stateMutability": "view",
      "type": "function"
    },
    {
      "inputs": [
        {
          "internalType": "address",
          "name": "operator",
          "type": "address"
        }
      ],
      "name": "addOperator",
      "outputs": [],
      "stateMutability": "nonpayable",
      "type": "function"
    },
    {
      "inputs": [
        {
          "internalType": "address",
          "name": "token",
          "type": "address"
        },
        {
          "internalType": "address",
          "name": "from",
          "type": "address"
        },
        {
          "internalType": "address[]",
          "name": "recipients",
          "type": "address[]"
        },
        {
          "internalType": "uint256[]",
          "name": "amounts",
          "type": "uint256[]"
        }
      ],
      "name": "batchTransferFrom",
      "outputs": [],
      "stateMutability": "nonpayable",
      "type": "function"
    },
    {
      "inputs": [
        {
          "internalType": "bytes32",
          "name": "role",
          "type": "bytes32"
        }
      ],
      "name": "getRoleAdmin",
      "outputs": [
        {
          "internalType": "bytes32",
          "name": "",
          "type": "bytes32"
        }
      ],
      "stateMutability": "view",
      "type": "function"
    },
    {
      "inputs": [
        {
          "internalType": "bytes32",
          "name": "role",
          "type": "bytes32"
        },
        {
          "internalType": "address",
          "name": "account",
          "type": "address"
        }
      ],
      "name": "grantRole",
      "outputs": [],
      "stateMutability": "nonpayable",
      "type": "function"
    },
    {
      "inputs": [
        {
          "internalType": "bytes32",
          "name": "role",
          "type": "bytes32"
        },
        {
          "internalType": "address",
          "name": "account",
          "type": "address"
        }
      ],
      "name": "hasRole",
      "outputs": [
        {
          "internalType": "bool",
          "name": "",
          "type": "bool"
        }
      ],
      "stateMutability": "view",
      "type": "function"
    },
    {
      "inputs": [],
      "name": "pause",
      "outputs": [],
      "stateMutability": "nonpayable",
      "type": "function"
    },
    {
      "inputs": [],
      "name": "paused",
      "outputs": [
        {
          "internalType": "bool",
          "name": "",
          "type": "bool"
        }
      ],
      "stateMutability": "view",
      "type": "function"
    },
    {
      "inputs": [
        {
          "internalType": "address",
          "name": "operator",
          "type": "address"
        }
      ],
      "name": "removeOperator",
      "outputs": [],
      "stateMutability": "nonpayable",
      "type": "function"
    },
    {
      "inputs": [
        {
          "internalType": "bytes32",
          "name": "role",
          "type": "bytes32"
        },
        {
          "internalType": "address",
          "name": "callerConfirmation",
          "type": "address"
        }
      ],
      "name": "renounceRole",
      "outputs": [],
      "stateMutability": "nonpayable",
      "type": "function"
    },
    {
      "inputs": [
        {
          "internalType": "address",
          "name": "to",
          "type": "address"
        }
      ],
      "name": "rescueETH",
      "outputs": [],
      "stateMutability": "nonpayable",
      "type": "function"
    },
    {
      "inputs": [
        {
          "internalType": "address",
          "name": "token",
          "type": "address"
        },
        {
          "internalType": "address",
          "name": "to",
          "type": "address"
        }
      ],
      "name": "rescueToken",
      "outputs": [],
      "stateMutability": "nonpayable",
      "type": "function"
    },
    {
      "inputs": [
        {
          "internalType": "bytes32",
          "name": "role",
          "type": "bytes32"
        },
        {
          "internalType": "address",
          "name": "account",
          "type": "address"
        }
      ],
      "name": "revokeRole",
      "outputs": [],
      "stateMutability": "nonpayable",
      "type": "function"
    },
    {
      "inputs": [
        {
          "internalType": "bytes4",
          "name": "interfaceId",
          "type": "bytes4"
        }
      ],
      "name": "supportsInterface",
      "outputs": [
        {
          "internalType": "bool",
          "name": "",
          "type": "bool"
        }
      ],
      "stateMutability": "view",
      "type": "function"
    },
    {
      "inputs": [],
      "name": "unpause",
      "outputs": [],
      "stateMutability": "nonpayable",
      "type": "function"
    },
    {
      "stateMutability": "payable",
      "type": "receive"
    }
  ],
  "bytecode": "0x60806040523480156200001157600080fd5b50604051620011f7380380620011f783398101604081905262000034916200019e565b60016002556001600160a01b0382166200007e5760405162461bcd60e51b8152602060048201526007602482015266061646d696e3d360cc1b604482015260640160405180910390fd5b6200008b600083620000d2565b506001600160a01b03811615620000ca57620000c87f97667070c54ef182b0f5858b034beac1b6f3089aa2d3188bb1e8929f4fa9b92982620000d2565b505b5050620001d6565b6000828152602081815260408083206001600160a01b038516845290915281205460ff1662000177576000838152602081815260408083206001600160a01b03861684529091529020805460ff191660011790556200012e3390565b6001600160a01b0316826001600160a01b0316847f2f8788117e7eff1d82e926ec794901d17c78024a50270940304540a733656f0d60405160405180910390a45060016200017b565b5060005b92915050565b80516001600160a01b03811681146200019957600080fd5b919050565b60008060408385031215620001b257600080fd5b620001bd8362000181565b9150620001cd6020840162000181565b90509250929050565b61101180620001e66000396000f3fe6080604052600436106101025760003560e01c80638456cb5911610095578063a217fddf11610064578063a217fddf1461029b578063abbf68d8146102b0578063ac8a584a146102d0578063d547741f146102f0578063f5b541a61461031057600080fd5b80638456cb591461023057806391d1485414610245578063950bff9f146102655780639870d7fe1461027b57600080fd5b806336568abe116100d157806336568abe146101c35780633f4ba83a146101e35780634707d000146101f85780635c975abb1461021857600080fd5b806301ffc9a71461010e57806304824e7014610143578063248a9ca3146101655780632f2ff15d146101a357600080fd5b3661010957005b600080fd5b34801561011a57600080fd5b5061012e610129366004610d99565b610332565b60405190151581526020015b60405180910390f35b34801561014f57600080fd5b5061016361015e366004610de6565b610369565b005b34801561017157600080fd5b50610195610180366004610e01565b60009081526020819052604090206001015490565b60405190815260200161013a565b3480156101af57600080fd5b506101636101be366004610e1a565b610484565b3480156101cf57600080fd5b506101636101de366004610e1a565b6104af565b3480156101ef57600080fd5b506101636104e7565b34801561020457600080fd5b50610163610213366004610e46565b6104fd565b34801561022457600080fd5b5060015460ff1661012e565b34801561023c57600080fd5b506101636105f4565b34801561025157600080fd5b5061012e610260366004610e1a565b610607565b34801561027157600080fd5b506101956101f481565b34801561028757600080fd5b50610163610296366004610de6565b610630565b3480156102a757600080fd5b50610195600081565b3480156102bc57600080fd5b506101636102cb366004610ebc565b610653565b3480156102dc57600080fd5b506101636102eb366004610de6565b61069c565b3480156102fc57600080fd5b5061016361030b366004610e1a565b6106bf565b34801561031c57600080fd5b50610195600080516020610fbc83398151915281565b60006001600160e01b03198216637965db0b60e01b148061036357506301ffc9a760e01b6001600160e01b03198316145b92915050565b6000610374816106e4565b6001600160a01b0382166103a35760405162461bcd60e51b815260040161039a90610f4d565b60405180910390fd5b60405147906000906001600160a01b0385169083908381818185875af1925050503d80600081146103f0576040519150601f19603f3d011682016040523d82523d6000602084013e6103f5565b606091505b505090508061043c5760405162461bcd60e51b8152602060048201526013602482015272195d1a081d1c985b9cd9995c8819985a5b1959606a1b604482015260640161039a565b6040518281526001600160a01b038516906000907fe01920728668d89f092ef9cb92036bad90964bb622eec508d2c3ffe1d582efb2906020015b60405180910390a350505050565b60008281526020819052604090206001015461049f816106e4565b6104a983836106ee565b50505050565b6001600160a01b03811633146104d85760405163334bd91960e11b815260040160405180910390fd5b6104e28282610780565b505050565b60006104f2816106e4565b6104fa6107eb565b50565b6000610508816106e4565b6001600160a01b03821661052e5760405162461bcd60e51b815260040161039a90610f4d565b6040516370a0823160e01b81523060048201526000906001600160a01b038516906370a0823190602401602060405180830381865afa158015610575573d6000803e3d6000fd5b505050506040513d601f19601f820116820180604052508101906105999190610f6b565b90506105af6001600160a01b038516848361083d565b826001600160a01b0316846001600160a01b03167fe01920728668d89f092ef9cb92036bad90964bb622eec508d2c3ffe1d582efb28360405161047691815260200190565b60006105ff816106e4565b6104fa61089c565b6000918252602082815260408084206001600160a01b0393909316845291905290205460ff1690565b600061063b816106e4565b6104e2600080516020610fbc833981519152836106ee565b61065b6108d7565b6106636108fd565b600080516020610fbc83398151915261067b816106e4565b610689878787878787610925565b506106946001600255565b505050505050565b60006106a7816106e4565b6104e2600080516020610fbc83398151915283610780565b6000828152602081905260409020600101546106da816106e4565b6104a98383610780565b6104fa8133610c8f565b60006106fa8383610607565b610778576000838152602081815260408083206001600160a01b03861684529091529020805460ff191660011790556107303390565b6001600160a01b0316826001600160a01b0316847f2f8788117e7eff1d82e926ec794901d17c78024a50270940304540a733656f0d60405160405180910390a4506001610363565b506000610363565b600061078c8383610607565b15610778576000838152602081815260408083206001600160a01b0386168085529252808320805460ff1916905551339286917ff6391f5c32d9c69d2a47ea670b442974b53935d1edc7fd64eb21e047a839171b9190a4506001610363565b6107f3610ccc565b6001805460ff191690557f5db9ee0a495bf2e6ff9c91a7834c1ba4fdd244a5e8aa4e537bd38aeae4b073aa335b6040516001600160a01b03909116815260200160405180910390a1565b6040516001600160a01b038381166024830152604482018390526104e291859182169063a9059cbb906064015b604051602081830303815290604052915060e01b6020820180516001600160e01b038381831617835250505050610cef565b6108a46108d7565b6001805460ff1916811790557f62e78cea01bee320cd4e420270b5ea74000d11b0c9f74754ebdbfc544b05a25833610820565b60015460ff16156108fb5760405163d93c066560e01b815260040160405180910390fd5b565b600280540361091f57604051633ee5aeb560e01b815260040160405180910390fd5b60028055565b6001600160a01b0386166109655760405162461bcd60e51b81526020600482015260076024820152660746f6b656e3d360cc1b604482015260640161039a565b6001600160a01b0385166109a45760405162461bcd60e51b8152602060048201526006602482015265066726f6d3d360d41b604482015260640161039a565b828181146109e35760405162461bcd60e51b815260206004820152600c60248201526b0d8cadc40dad2e6dac2e8c6d60a31b604482015260640161039a565b60008111610a215760405162461bcd60e51b815260206004820152600b60248201526a0cadae0e8f240c4c2e8c6d60ab1b604482015260640161039a565b6101f4811115610a655760405162461bcd60e51b815260206004820152600f60248201526e626174636820746f6f206c6172676560881b604482015260640161039a565b866000805b83811015610afb576000888883818110610a8657610a86610f84565b9050602002016020810190610a9b9190610de6565b90506001600160a01b038116610ac35760405162461bcd60e51b815260040161039a90610f4d565b6000878784818110610ad757610ad7610f84565b9050602002013590508084610aec9190610f9a565b93508260010192505050610a6a565b50604051636eb1769f60e11b81526001600160a01b03898116600483015230602483015282919084169063dd62ed3e90604401602060405180830381865afa158015610b4b573d6000803e3d6000fd5b505050506040513d601f19601f82011682018060405250810190610b6f9190610f6b565b1015610bb65760405162461bcd60e51b8152602060048201526016602482015275696e73756666696369656e7420616c6c6f77616e636560501b604482015260640161039a565b60005b83811015610c2d576000868683818110610bd557610bd5610f84565b9050602002013590506000811115610c2457610c248a8a8a85818110610bfd57610bfd610f84565b9050602002016020810190610c129190610de6565b6001600160a01b038716919084610d60565b50600101610bb9565b50876001600160a01b0316896001600160a01b03167fc06b50557ceea1741c6395973b30c4cb8a146fe3583a715ba17e605f530d0ac48584604051610c7c929190918252602082015260400190565b60405180910390a3505050505050505050565b610c998282610607565b610cc85760405163e2517d3f60e01b81526001600160a01b03821660048201526024810183905260440161039a565b5050565b60015460ff166108fb57604051638dfc202b60e01b815260040160405180910390fd5b600080602060008451602086016000885af180610d12576040513d6000823e3d81fd5b50506000513d91508115610d2a578060011415610d37565b6001600160a01b0384163b155b156104a957604051635274afe760e01b81526001600160a01b038516600482015260240161039a565b6040516001600160a01b0384811660248301528381166044830152606482018390526104a99186918216906323b872dd9060840161086a565b600060208284031215610dab57600080fd5b81356001600160e01b031981168114610dc357600080fd5b9392505050565b80356001600160a01b0381168114610de157600080fd5b919050565b600060208284031215610df857600080fd5b610dc382610dca565b600060208284031215610e1357600080fd5b5035919050565b60008060408385031215610e2d57600080fd5b82359150610e3d60208401610dca565b90509250929050565b60008060408385031215610e5957600080fd5b610e6283610dca565b9150610e3d60208401610dca565b60008083601f840112610e8257600080fd5b50813567ffffffffffffffff811115610e9a57600080fd5b6020830191508360208260051b8501011115610eb557600080fd5b9250929050565b60008060008060008060808789031215610ed557600080fd5b610ede87610dca565b9550610eec60208801610dca565b9450604087013567ffffffffffffffff80821115610f0957600080fd5b610f158a838b01610e70565b90965094506060890135915080821115610f2e57600080fd5b50610f3b89828a01610e70565b979a9699509497509295939492505050565b6020808252600490820152630746f3d360e41b604082015260600190565b600060208284031215610f7d57600080fd5b5051919050565b634e487b7160e01b600052603260045260246000fd5b8082018082111561036357634e487b7160e01b600052601160045260246000fdfe97667070c54ef182b0f5858b034beac1b6f3089aa2d3188bb1e8929f4fa9b929a2646970667358221220cc445b0afb5e8431b50b5ed21a4f8c9af44acfe648c87e2d17f16e1f30c59fb064736f6c63430008140033",
  "linkReferences": {},
  "deployedLinkReferences": {}
}